:020000040800F2
:10000000802800202D0C0008490200084B0200083F
:100010004D0200084F0200085102000800000000D5
:100020000000000000000000000000005302000873
:10003000550200080000000057020008590200089D
:10004000470C0008470C0008470C0008470C000844
:10005000470C0008470C0008470C0008470C000834
:10006000470C0008470C0008470C0008470C000824
:10007000470C0008470C0008470C0008470C000814
:10008000470C0008470C0008470C0008470C000804
:10009000470C0008470C0008470C0008470C0008F4
:1000A000470C0008470C0008470C0008470C0008E4
:1000B000470C000867440008470C0008470C00087C
:1000C000470C0008470C0008470C0008470C0008C4
:1000D000470C0008A10B00089F600008470C0008AF
:1000E000470C0008470C0008470C0008DFF80CD04C
:1000F00009F02AF800480047FD0100088028002088
:1001000070B54FF4A06001F0C5F900F0A7FC4FF402
:10011000E134204600F0F8FC02F064FB00F0EEF958
:10012000204605F033FF06F00BF804F061F9364E77
:100130004FF4805400222146304600F04EFE4FF42A
:10014000FA75284600F0B8FC01222146304600F03E
:1001500044FE680000F0B0FC2CA005F06FFF304AB0
:1001600030A1012005F040FE2F4A2EA1012005F00C
:100170003BFE2E480024446208F000FB2C4801217D
:1001800001702CA1284605F02FFE2C483115046083
:100190002B4808F050FB02F0FEFA00F00BF900F0DB
:1001A0002DFA01F09DFF04F07BFE05F0E5FB2548EC
:1001B00002F0AEFCBDE8704002F0ADBC10B504F03A
:1001C00000FF05F008FC08B102F017FB00F01CFB73
:1001D00000F073FA00F04EF904F030FE05F0FBFB7E
:1001E00018B101F0D8FF02F040FD05F0CAFBBDE8F0
:1001F00010404FF48061124808F01DBBFFF780FFEC
:10020000FFF7DCFFFCE700000008014041542B47EA
:10021000534C503D333630303030300D0A00000042
:1002200028110020257300002A1900202821002011
:1002300000000020737461727420210028010020E6
:1002400024020020554800087047FEE7FEE7FEE75D
:10025000FEE7704770477047704700000CB50022FA
:100260004C4800920192016841F4803101604FF4E2
:10027000A063016801F4003101910099491C0091CB
:10028000019911B900999942F3D10168890333D5D5
:100290000121019140490A6842F010020A600A688F
:1002A00022F003020A600A6842F002020A60416812
:1002B000416041684160416841F48061416041684A
:1002C00021F47C114160416841F4E811416001680A
:1002D00041F08071016001688901FCD5416821F01D
:1002E00003014160416841F0020141604168C1F38E
:1002F00081010229FAD10CBD01920CBD254810B52F
:10030000016841F0010101604168244A11404160E7
:100310000168234A11400160016821F480210160D5
:10032000416821F4FE0141604FF41F018160FFF735
:1003300095FF1C494FF00060086010BD154A10B5CC
:100340005068194B10F00C01184803D0042901D053
:10035000082901D0036012E05168536801F470115C
:100360004FF0020413F4803F04EB914102D0536834
:100370009B0301D50E4B00E00B4B594301605168C4
:100380000A4AC1F30311121D515C0268CA4002609F
:1003900010BD000000100240002002400000FFF8E5
:1003A000FFFFF6FE08ED00E000127A0004000020D6
:1003B00000093D0038B501211C2000F088FE012114
:1003C000084600F084FE0121464800F023FD082085
:1003D000ADF8000010248DF803400320424D8DF845
:1003E00002006946284600F08AFC0821284600F0F1
:1003F000F2FCE002ADF800008DF8034069463B488E
:1004000000F07DFC38BD70B51546394A1278002AD7
:1004100024D110B1012819D10DE0354C241D2170D3
:1004200004F01EF8606025B100203249C1F8BC011B
:100430000CE00120F9E72E4C0C34217004F010F888
:1004400060604DB100202C49C1F88C01BDE87040BE
:100450000121084605F0BBBA0120F4E770BD24482D
:10046000001D007820B922480C300078002800D008
:10047000012070471E4810B50021001D00F023F830
:1004800004461B4801210C3000F01DF804430BD139
:1004900018490120C1F8BC011749C1F88C01BDE819
:1004A0001040002105F093BA10BD10B5002211468E
:1004B0000120FFF7A8FF002211461046FFF7A3FF17
:1004C000BDE81040D6E710B50446007840B103F00F
:1004D000C7FF6168401A2178884201D3002020704C
:1004E000207810BD00023000000C014000080140DF
:1004F00018000020000021420080214210B505F0C4
:1005000073FA1A48C07838B1A02005F0B6FAC020B6
:10051000BDE8104005F0B1BAA12005F0AEFAC82040
:10052000F6E72DE9F041124C104F002606F1B0001D
:10053000C0B205F0A2FA002005F09FFA102005F0E5
:100540009CFA00257878002814F8010B01D0C043EC
:10055000C0B205F0C4FA6D1CEDB2802DF2D3761C4A
:10056000F6B2082EE2D3BDE8F0810000300A002088
:1005700024020020F0B50E460446012189B0084649
:1005800000F0AEFD0121042000F0A1FD0125ADF831
:100590001C5018208DF81F0003205C4F8DF81E00A2
:1005A00007A9384600F0ABFB0121384600F013FCE8
:1005B000ADF81440ADF810600024AE07ADF8164059
:1005C000ADF8124004A9304601F054F87020ADF89F
:1005D00000001920ADF80600ADF80250ADF8084053
:1005E0006946304601F07FF80121304601F0F4FA07
:1005F0000021304601F0E6FA09B0F0BD40F29F510B
:100600003220B7E770B5424D14460E462A78049959
:1006100093422ED3F6B12B70A960688003F020FFBF
:1006200041F288316860CD06012E17D03948012C7F
:1006300020D0022C20D0032C20D002224CF25030AB
:10064000B0FBF6F4E2B1012A2BD0022A2BD0032A08
:1006500019D12AE0BDE8704000F044B8284601F006
:10066000B2FC0021284601F0ADFA2B490020C1F868
:10067000800170BD027AE1E7427ADFE7827ADDE746
:10068000284601F0A0FC2146284601F09AFC0021F2
:10069000284601F094FC2846BDE87040012101F095
:1006A00091BAE108ECE7A108EAE76108E8E7184831
:1006B0004088002800D00120704710B5144C608895
:1006C00000280ED003F0CCFE6168401A6188884291
:1006D00007D300F007F8A068002802D0BDE810405A
:1006E000004710BD10B541F28831CC06204601F01C
:1006F0006AFC0021204601F065FA07490020C1F894
:10070000800103494880087010BD000000080140C6
:100710002C000020300A00200000214230B57F2844
:100720000FD83F290DD801F007040123A340B54D90
:10073000C90800EBC110295C0AB1194300E09943D4
:10074000295430BD2DE9F04F1646DDF824B00D4692
:1007500004004FF0000A00D50024002D00DA002527
:10076000002E00DA0026002B00DA00237F2C00DDAB
:100770007F243F2D00DD3F257F2E00DD7F263F2B90
:1007800000DD3F23301B00D540424FFA80FC581B50
:1007900000D540424FFA80F8E0450BDD6046C44684
:1007A0004FFA80F8E0B22C460546F0B21E464FF0F4
:1007B000010A0346B44205DDE0B234460646E8B21B
:1007C0001D4603464FEA6C079D4201DA012001E015
:1007D0004FF0FF30814610E0BAF1000F11D0E1B2C6
:1007E000E8B25A46FFF79AFFB7EB080703D505EBC7
:1007F000090005B26744641C24B2B442ECDDBDE8D4
:10080000F08FE9B2E0B2ECE710B503F029FE7E49C3
:100810008A68821A322A00D3886010BD10B501217F
:100820007A4801F086FF7A490020087076490870FE
:10083000012010BD74498878401E10F0FF008870B8
:1008400004D1012088704878401C4870002070470F
:100850006D494878401E10F0FF00487004D1887838
:10086000401C887001204870002070472DE9F8472F
:10087000654F0D464FF48063B9880024491C89B246
:10088000F980994200D1FC80624AFE8899429055D5
:10089000B98000D1BC800026BC884FF07F0C984600
:1008A000914614E006FB05F0C0F17F0019F8041032
:1008B000C0B20122FFF732FFB878211A8CB244454A
:1008C00003D3C0F58060204484B2761CB6B2BCFB72
:1008D000F5F0B042E6D2BC880021E24625E0BA78C5
:1008E000A01A80B2404503D3C2F58062104480B2A2
:1008F000012200924E1C19F8003006FB05F0C0F1F1
:100900007F0002B2694319F804C0C1F17F0000B250
:100910006146FFF717FFB878211A8CB2444503D31C
:10092000C0F58060204484B2B1B2BAFBF5F08842D1
:10093000D5D2BDE8F8873EB5334C206908F0DCF924
:1009400002460B4634A1684608F0DAFC00231A463A
:100950001946684602F084FA606908F0CDF902464B
:100960000B4630A1684608F0CBFC00220823114654
:10097000684602F075FAA06908F0BEF902460B4617
:100980002BA1684608F0BCFC0022102311466846E3
:1009900002F066FAE06808F0AFF9284A284B08F040
:1009A00040F808F0BCF9E06008F0A6F909F0D8FCBE
:1009B000052208F04FF90022224B08F032F808F027
:1009C00082F92149C0B2E070097821B16178FFF75E
:1009D0004DFF01203EBD606908F061F9C0B2F5E746
:1009E00010B51A4802F09DF8194A1A491A4801F040
:1009F00019FF002003F079FC054901200870024925
:100A0000087010BD2402002038000020172B0008B9
:100A1000A0010020240600207069743A252E326659
:100A200000000000726F6C3A252E32660000000054
:100A30007961773A252E3266000000009A999999DB
:100A40009999A93F000040400000002037090008A4
:100A5000510800081D0800083508000810B56FF09F
:100A6000040000F05CFD204820490068B0FBF1F074
:100A70001F49C0B200EB40020870C2EBC0104FF635
:100A8000FF7202EAC000488010BD19490978484346
:100A90004FF0E021486100238B61086940F00100BC
:100AA00008610869C20701D0C003FAD5086920F0BF
:100AB000010008618B6170470D49498848434FF038
:100AC000E021486100238B61086940F00100086162
:100AD0000869C20701D0C003FAD5086920F00100F7
:100AE00008618B61704700000400002000127A004A
:100AF00054000020704746490A885206FCD5444AF3
:100B0000C1B2121D1180704770B5054686B0012133
:100B100044F2040000F0DBFA4FF40070ADF810006E
:100B200003248DF8124018203A4E8DF8130004A9C2
:100B3000304600F0E4F83015ADF8100004208DF8D0
:100B4000130004A9304600F0DAF825208DF81400CF
:100B50008DF815408DF8164001208DF8170005A876
:100B600000F09DFC0020ADF80400ADF80600ADF8E3
:100B70000800ADF80C000C20254CADF80A000095DB
:100B80006946204600F022FB012240F22551204612
:100B900000F099FB0121204600F08BFB06B070BDF0
:100BA00010B51B4C40F22551204600F043FC0028B4
:100BB00028D0204600F0D7FBC0B20021164C2C28CC
:100BC0001FD0164B2E281ED0154A2F281DD00120CD
:100BD00010701870207013484178002912D0807866
:100BE00000280FD1104A0A211078B0FBF1F301FB65
:100BF0001301401C1070BDE810400A48303106F067
:100C0000DABC217010BD197010BD117010BD00004C
:100C10000038014000080140B4000020B500002069
:100C2000B6000020282100205800002006488047F8
:100C300006480047FEE7FEE7FEE7FEE7FEE7FEE7C1
:100C4000FEE7FEE7FEE7FEE7FD020008ED00000814
:100C50008F4910B5884206D10121042000F049FADD
:100C6000002104203BE08B49884206D10121082065
:100C700000F03FFA0021082031E08749884206D180
:100C80000121102000F035FA0021102027E08349CF
:100C9000884206D10121202000F02BFA00212020DB
:100CA0001DE07F49884206D10121402000F021FA51
:100CB0000021402013E07B49884206D10121802099
:100CC00000F017FA0021802009E0774988420AD114
:100CD00084150121204600F00CFA00212046BDE8D1
:100CE000104000F006BA10BD10B50121084600F012
:100CF00000FA0021BDE81040012000F0FAB9F0B57B
:100D0000CC78002204F00F03E40601D58C7823434D
:100D10000C784FF00F0C14F0FF0F4FF0010E1BD0AA
:100D200005680E880EFA02F42640A64210D19600FD
:100D30000CFA06F725EA070703FA06F5CE783D43D5
:100D4000282E02D0482E02D002E0446100E0046167
:100D5000521C082AE5D305600A88FF2A1CD944687A
:100D6000002202F108060EFA06F50E882E40AE4269
:100D70000ED196000CFA06F7BC4303FA06F7CE78BC
:100D80003C43282E00D14561CE78482E00D1056124
:100D9000521C082AE5D34460F0BD4FF6FF71018074
:100DA000022181700421C1707047024600209268C0
:100DB0000A4200D001207047806880B27047024626
:100DC0000020D2680A4200D001207047C06880B27B
:100DD000704701617047416170470AB10161704716
:100DE00041617047C160704741F480328261816126
:100DF00082618169806970472C4B10B51A684FF683
:100E00008074224042EA00100843186010BD28494F
:100E1000C8617047F0B5254C002801DAE36900E0AD
:100E20006368450D2E0185B2C0F30157B540C0F38C
:100E30000342032F05D0C6020AD503269640B343CA
:100E400007E023F07062636823F07063636002E080
:100E5000AB4343F0706201B12A43002801DAE2613A
:100E6000F0BD6260F0BD10B58A0721F003040F49A0
:100E7000120F21440F238C6893409C438C608B6835
:100E8000904003438B6010BD0949C1F8DC007047F6
:100E900000080140000C0140001001400014014016
:100EA00000180140001C01400020014000000140EA
:100EB00000002042A548016841F00101016041683D
:100EC000A34A114041600168A24A114001600168D3
:100ED00021F480210160416821F4FE0141604FF45A
:100EE0001F018160704799490A6822F480320A60C4
:100EF0000A6822F480220A60B0F5803F07D0B0F57E
:100F0000802F03D1086840F4A0200860704708686B
:100F100040F48030F9E70346002059098B4A012943
:100F20000AD002290AD0516A03F01F02012393401C
:100F30000B4200D0012070471168F5E7116AF3E712
:100F400018B500204FF4A06400903120FFF7E3FFB4
:100F50000099491C0091A14201D00028F5D0312010
:100F6000FFF7D9FF002800D0012018BD774A11688B
:100F700021F0F80141EAC00010607047764908602E
:100F80007047724B5A68084322F47C121043586031
:100F900070477149086670476C4A516821F0030137
:100FA0000143516070476948406800F00C00704789
:100FB000664A516821F0F001014351607047634A6D
:100FC000516821F4E0610143516070475F4A516804
:100FD00021F4605141EAC000506070475B4A00292B
:100FE000517A01D0014300E08143517270475A4960
:100FF000C1F8D8007047554A516821F44041014377
:10100000516070475149002281F8202081F820204A
:10101000012802D0042802D1052081F82000704761
:101020004E490860704749490A6A02430A6270479C
:101030004A4944390860704730B5444A5168484BC2
:1010400011F00C0103D0042901D0082901D003605C
:1010500012E05168536801F470114FF0020413F468
:10106000803F04EB914102D053689B0301D53D4B77
:1010700000E03B4B5943016051680F2303EA111113
:10108000394B5C5C0168E14041605468072505EA22
:1010900014241C5D21FA04F48460546805EAD42405
:1010A0001B5DD940C1605268032303EA92322E4B84
:1010B0001B1F9A5CB1FBF2F1016130BD234A00298C
:1010C000516901D0014300E08143516170471F4ADB
:1010D0000029916901D0014300E08143916170478B
:1010E0001A4A0029D16901D0014300E08143D1614E
:1010F0007047164A0029D16801D0014300E08143BE
:10110000D1607047114A0029116901D0014300E004
:1011100081431161704711494039086070470E4999
:10112000C86470470949C87170470848416A41F06E
:10113000807141627047054A0146002092680A4268
:1011400000D00120704701498872704700100240AA
:101150000000FFF8FFFFF6FE00004242800442421A
:1011600000127A0000093D005D000020C44910B55E
:1011700088420AD101218C032046FFF7BAFF20469E
:10118000BDE810400021FFF7B4BFBE49884202D13C
:1011900001214C0410E0BC49884202D101218C0499
:1011A0000AE0BA49884202D10121CC0404E0B849DE
:1011B00088420AD101210C052046FFF7A3FF2046F3
:1011C000BDE810400021FFF79DBF10BD30B50446BB
:1011D000008A85B00D464CF6FF710840E98801434E
:1011E0002182A0894EF6F3110840A9882A8911436B
:1011F0006A8902431143A181A08A4FF6FF4108404A
:10120000A9890143A1826846FFF716FF9C488442E2
:1012100001D1039800E00298A189090400EBC00104
:1012200001EB0010296801D5490000E08900B0FBFE
:10123000F1F06422B0FBF2F109010B096FF018051F
:101240006B4300EB8300A3891D044FF0320306D5E6
:1012500003EBC000B0FBF2F000F0070005E003EB89
:101260000010B0FBF2F000F00F000843208105B041
:1012700030BD4FF41651016000218180C180018191
:101280000C2242818181704710B5028A4FF2FF0320
:101290001A400B884C8823438C88C9880C4323430D
:1012A0001343038210BD0021018041808180C180F1
:1012B00070470029818902D041F4005101E021F4F6
:1012C00000518181704710B5C1F3421301F01F0432
:1012D0000121A140012B07D0022B07D01430002A96
:1012E000026805D00A4304E00C30F8E71030F6E756
:1012F0008A43026010BD002A828A01D00A4300E0BE
:101300008A4382827047028A22F00F020282028A96
:101310000A4302827047828922F4006282818289B4
:101320000A43828170470029818902D041F002017D
:1013300001E021F0020181817047028A22F020023F
:101340000282028A0A43028270470029018A02D07F
:1013500041F4804101E021F4804101827047C1F3F2
:101360000801818070478088C0F308007047818938
:1013700041F0010181817047028BD2B20283028B5E
:1013800042EA012101837047028B02F47F4202830B
:10139000028B0A43028370470029818A02D041F000
:1013A000200101E021F02001818270470029818A1B
:1013B00002D041F0100101E021F01001818270475C
:1013C0000029818A02D041F0080101E021F00801E2
:1013D000818270470029818902D041F4004101E0F7
:1013E000C1F30E01818170470029818A02D041F446
:1013F000006101E021F4006181827047828A22F05D
:1014000004028282828A0A43828270470029818A8A
:1014100002D041F0020101E021F002018182704717
:101420000246002012880A4200D001207047C943BA
:101430000180704770B501F01F0501260024C1F33B
:10144000421306FA05F2012B0FD0022B0FD0838A2C
:101450004FEA11210088134206FA01F600EA06005D
:1014600001D000B10124204670BD8389F0E7038AD2
:10147000EEE70A0A01219140C9430180704700004C
:10148000003801400044004000480040004C00404B
:10149000005000402849084328490860704730B58B
:1014A0000F23C27801780125F2B1244A126801F1B4
:1014B000E02102F4E062C2F5E062120AC2F1040423
:1014C000D3404278A24084781C401443220181F822
:1014D0000024007800F01F018D404009800000F1D9
:1014E000E020C0F8005130BD01F01F0085404809E0
:1014F000800000F1E020C0F8805130BD104A11405A
:1015000001430E48001F016070470C4A121D00295C
:10151000116801D0014300E08143116070474FF032
:10152000E0210428086903D020F004000861704716
:1015300040F00400FAE700000000FA050CED00E0BE
:1015400080FFFF1FF94910B5884202D10121C41460
:1015500086E0B0F1804F09D0F54988420DD10121D4
:101560000220FFF7CFFD0021022064E001210846A0
:10157000FFF7C8FD002101205DE0EE49884206D159
:1015800001210420FFF7BEFD0021042053E0EA49B9
:10159000884206D101210820FFF7B4FD0021082070
:1015A00049E0E649884206D101211020FFF7AAFD53
:1015B000002110203FE0E249884206D1012120208D
:1015C000FFF7A0FD0021202035E0DE49884202D14E
:1015D0000121441444E0DC49884202D10121CC04B9
:1015E0003EE0DA49884202D101210C0538E0D849B1
:1015F000884202D101214C0532E0D649884206D109
:1016000001214020FFF77EFD0021402013E0D24958
:10161000884206D101218020FFF774FD002180203F
:1016200009E0CE4988420AD1841501212046FFF7FE
:1016300069FD00212046BDE81040FFF763BDC849A1
:10164000884202D101210C040AE0C649884202D135
:1016500001214C0404E0C44988420AD101218C04D0
:101660002046FFF746FD2046BDE810400021FFF769
:1016700040BD10BD30B50288AC4CB24DA0420DD07B
:10168000A8420BD0B0F1804F08D0A94B984205D0AA
:10169000A84B984202D0A84B984203D122F0700385
:1016A0004A881A43A54B984206D0A54B984203D0CE
:1016B00022F44073CA881A4302808A8882850A8885
:1016C0000285A0420AD0A84208D0A54A904205D07F
:1016D000A44A904202D0A44A904201D1097A0186DC
:1016E0000121818230BD30B5028C22F001020284DA
:1016F000028C8388048B22F0020224F073050C888C
:101700002C430D8915434A882A43884DA8420BD0A3
:101710008C4DA84208D0924DA84205D0914DA842C8
:1017200002D0914DA8420DD122F008054A8923F438
:1017300040732A4322F004058A882A438D891D4379
:10174000CB892B4383800483C9888186028430BD82
:1017500070B5028C22F010020284028C8388048B04
:101760000D8824F4E6464FF6FF7404EA0525354358
:101770000E8922F0200204EA061616434A8804EA7B
:1017800002123243694EB04202D06E4EB04215D1C1
:1017900022F080064A8923F4406304EA02123243AD
:1017A00022F040068A8804EA021232438E8904EA53
:1017B00086061E43CB8904EA830333438380058373
:1017C000C9880187028470BD70B5028C22F48072D2
:1017D0000284028C8388848B0D8824F07304254353
:1017E0000E894FF6FF7422F4007204EA06261643AF
:1017F0004A8804EA022232434C4EB04202D0514E93
:10180000B04215D122F400664A8923F4405304EA19
:101810000222324322F480668A8804EA022232439A
:101820008E8904EA06161E43CB8904EA0313334368
:1018300083808583C9888187028470BD70B5028CDE
:1018400022F480520284058C8288838B0C8823F4D6
:10185000E6464FF6FF7303EA0424344325F40056AA
:101860000D8903EA053535434E8803EA06362E43D3
:101870002E4DA84202D0334DA84205D122F4804516
:101880008A8903EA82122A4382808483C988A0F865
:101890004010068470BD828B22F440628283828B6A
:1018A0004FF6FF7303EA01210A4382837047828B5C
:1018B00022F00C028283828B0A4382837047028B60
:1018C00022F440620283028B4FF6FF7303EA012188
:1018D0000A4302837047F0B5048C24F0100404849A
:1018E000078B048C4FF6FF7527F4734705EA033323
:1018F0003B4305EA02221A430C4B05EA01169842C3
:101900000ED0104B98420BD0B0F1804F08D0084B4E
:10191000984205D0074B984202D0074B984225D1F8
:1019200024F02001314341F0100124E0002C01405B
:101930000004004000080040000C0040001000407F
:101940000014004000340140004C014000500140B0
:101950000054014000180040001C004000200040DE
:1019600000400140004401400048014024F0A00331
:101970000B4343F0100102830184F0BD028B22F07F
:101980000C020283028B0A430283704770B5048CF9
:1019900024F001040484058B048C4FF6FF7606EADC
:1019A0000313134325F0F305F84A2B4390420ED05E
:1019B000F74A90420BD0B0F1804F08D0F54A9042E0
:1019C00005D0F54A904202D0F44A904202D124F068
:1019D000020201E024F00A020A4342F001010383FB
:1019E000018470BD2DE9F84F0D4604460888E74F85
:1019F000DFF89CC3DFF89C83DFF89C934988AA88B2
:101A00002B894FF0804A48B304282FD04FF6FF7639
:101A10000828934632D0208C9E4620F480502084A3
:101A2000A38B208C06EA0132009223F4734306EA6A
:101A30000B221A4306EA0E331343BC420AD0644514
:101A400008D0544506D0444504D04C4502D0D34A72
:101A5000944242D120F40050009940E02046FFF724
:101A600095FFE9882046BDE8F84F87E72046FFF755
:101A700032FFE9882046BDE8F84F20E7208C20F4AB
:101A800080702084B4F81CE0208C06EA031306EA78
:101A900001222EF0F30E43EA0B0343EA0E030092F9
:101AA000BC420AD0644508D0544506D0444504D011
:101AB0004C4502D0B94A944203D120F400700099F9
:101AC00001E020F42060084340F48070A383208468
:101AD000E9882046BDE8F84FE9E620F402400843D3
:101AE00040F48050A3832084E9882046BDE8F84F65
:101AF000D1E62DE9F0410C4600264988074601252C
:101B000001B90226A288012A00D102252088238952
:101B10000028384610D0FFF7DEFEE1883846FFF790
:101B2000CEFE23892A4631463846FFF72FFFE1884B
:101B30003846BDE8F04121E7FFF728FFE188384645
:101B4000FFF71CFF23892A4631463846FFF7C3FEBC
:101B5000E1883846BDE8F041B1E610B50A884B8807
:101B6000CC881A438B8823431A430B891A434B8929
:101B700089891A430A43A0F8442010BD4FF6FF712B
:101B8000818000210180C180418001727047002165
:101B9000018041808180C180018141818181C18139
:101BA000704700210180418001228280C180018133
:101BB00070470021018041808180C1800181418185
:101BC000818170470029018802D041F0010101E0C4
:101BD00021F0010101807047002930F8441F02D034
:101BE00041F4004101E0C1F30E0101807047002A79
:101BF000828901D00A4300E08A4382817047818252
:101C000070471143A0F848107047002A828901D01C
:101C10000A4300E08A4382817047018921F007016D
:101C200001817047028922F070020A4302817047E5
:101C300000B50346FFF7F6FF188940F0070018814A
:101C400000BD70B516460D46602904464FF00102EE
:101C500031460AD0FFF79AFE29462046FFF7E2FFF9
:101C6000208940F00700208170BDFFF734FEF3E7C4
:101C700030B504894FF6FF7505EA03231343E4B238
:101C80000B432343038130BD10B50446FFF7F0FF3B
:101C9000208940F07700208110BD10B50446FFF781
:101CA000E7FF208940F48040208110BD01858282B9
:101CB0007047028822F070020A430280704770B5B4
:101CC0000589048B068C25F007050D434FF6FC4172
:101CD0000C4040F201110C434FF6FF7101EA031171
:101CE00026F022061143314305810483018470BD2F
:101CF000028B22F070020A4302837047028B4FF678
:101D0000FF7322F4E04203EA01211143018370478B
:101D1000828B22F070020A4382837047828B4FF6D7
:101D2000FF7322F4E04203EA0121114381837047EB
:101D30000029018802D041F0800101E021F08001FA
:101D4000018070470029818802D041F0040101E040
:101D500021F00401818070470029818802D041F080
:101D6000080101E021F00801818070470029818885
:101D700002D041F0010101E021F0010181807047B2
:101D8000028B22F008020A4302837047002C0140B4
:101D9000003401400004004000080040000C0040F6
:101DA000028B4FF6FF7322F4006203EA0121114314
:101DB0000183EAE7828B22F008020A438283E4E788
:101DC000828B4FF6FF7322F4006203EA0121114374
:101DD0008183DAE7028B22F004020A430283D4E70C
:101DE000028B4FF6FF7322F4806203EA0121114354
:101DF0000183CAE7828B22F004020A438283C4E78C
:101E0000828B4FF6FF7322F4806203EA01211143B3
:101E10008183BAE7028B22F080020A430283B4E78F
:101E2000028B4FF6FF73C2F30E0203EA0121114346
:101E30000183AAE7828B22F080020A438283A4E70F
:101E4000828B4FF6FF73C2F30E0203EA01211143A6
:101E500081839AE7028C22F002020A43028494E70B
:101E6000028C22F008020A4302848EE7028C4FF6AD
:101E7000FF7322F0200203EA01111143018484E779
:101E8000028C4FF6FF7322F0800203EA0111114326
:101E900001847AE7028C4FF6FF7322F4007203EAA2
:101EA00001211143018470E7028C4FF6FF7322F485
:101EB000006203EA01211143018466E7028C4FF6B8
:101EC000FF7322F4005203EA0131114301845CE7FD
:101ED00010B50123048C8B409C430484038C8A40FE
:101EE0001343038410BD10B50423048C8B409C4322
:101EF0000484038C8A401343038410BD30B501244D
:101F0000058C00F118038C40A543058489B108298C
:101F10000FD0091FC1F34E001844016821F4E041BD
:101F2000016001684FF6FF7303EA0222114301606A
:101F300030BD03EB5100016821F0700101600168C0
:101F4000F4E70029018802D041F0020101E021F00C
:101F50000201018019E70029018802D041F0040143
:101F600001E021F0040101800FE70029818802D0FF
:101F700041F0800101E021F08001818005E70288C5
:101F800022F00802028002880A430280FDE682886D
:101F900022F07002828082880A438280F5E60289FC
:101FA00022F00702028102890A430281EDE60289DA
:101FB00022F08002028102890A430281E5E68184DF
:101FC000E3E68185E1E68186DFE60187DDE681875C
:101FD000DBE6A0F84010D8E6028822F440720280C6
:101FE00002880A430280D0E6808ECEE6008FCCE6DF
:101FF000808FCAE6B0F84000C7E6808CC5E6008D49
:10200000C3E602460020128A0A4200D00120BCE644
:10201000C9430182B9E602460020138A92890B4225
:1020200002EA010202D0002A00D00120ADE6C94335
:102030000182AAE6954A00EB4000104402880A801B
:102040008078887070472DE9FC47914CFF274FF648
:10205000FF76A0788DF80600E0788DF80700002163
:1020600001A802F026FF60782279401CC1B29DF8D9
:10207000060000F0D3F8DFF8149280460A25A9F193
:10208000140926E069462846FFF7D4FF9DF80200B0
:1020900000061ED5072419E09DF802000121A14089
:1020A000084213D09DF801109DF80000224600F070
:1020B000B5F8B0EB080002D542F25F71084481B276
:1020C000B14203D286B22F4689F80240641EE4B2C0
:1020D000E2D26D1EEDB2D5D289F80170BDE8FC8761
:1020E000B1E71E21694806F0A6BB0146674800B566
:1020F00014384078FF2803D0FFF79CFF012000BD73
:10210000002000BD61481438807870475F4A00EBBA
:10211000400010440A8802808978817093E710B5E6
:10212000FFF791FF594C143C606800F0FAFC04F191
:10213000080007C800F076FB032003F039FA0020FE
:10214000E070012010BD1FB502F08AF980280AD284
:1021500000202021CDE900100B46102102904D4AAD
:10216000084600F0E3FD02F01FFF14234F22002178
:1021700000F076FE46484849007901EB800103A84B
:1021800006F089FB24235622002103A800F068FEF4
:1021900004B0002010BD70B53C4C143CE57800F054
:1021A00049F8E178002937D098B38D4217D03B48E1
:1021B00000F0B7FC00216060084600F02DFBA06035
:1021C0003749012000F028FBE0600021022000F0E8
:1021D00023FB206103220221324803F0DBF932495C
:1021E000D1F8BC0158B10020C1F8BC01FEF737F9A5
:1021F000002811D12078012803D0012002E001201D
:10220000F2E700202070BDE87040FF229621FEF723
:10221000FAB8BDE8704082E770BD14E7C0EB00106B
:1022200001EB8001C2EB021000EB400001EB40101B
:1022300080B270471CB5164C0021A0788DF80600BE
:10224000E0788DF8070001A802F033FE6846FFF73A
:102250004CFFC8B122799DF80210012303FA02F065
:10226000014211D09DF800009DF8061088420BD164
:102270009DF801106278914206D1207810B9034987
:102280001439CB7001201CBD00201CBD840000202F
:1022900061010020B0B4000858A4000847210008DC
:1022A0001F21000800A400080000214210B5E948E1
:1022B00001F0FDFF01F0F1FFBDE8104002F052B85F
:1022C000F8B50020E44D8DF8010028462978052254
:1022D00040780C2938D2DFE801F037060E10252BA4
:1022E0002B2B2B2B2B2B072408B1802000E02E203A
:1022F0008DF8000003E0152400E02A240B22D748C3
:1023000001784078C900404201EBC0000830C6B2F5
:102310003146204600F01AFF2878022816D00328FC
:1023200014D018E0382408B15020E1E74120DFE75D
:10233000491FC9B2C1EBC1034633DCB210B1C84872
:10234000405CD5E72D20D3E70020F8BD6A78C5A111
:10235000684606F0D5FF334622460121684600F064
:102360007FFDF1E710B5BC4C6078401C607000F058
:102370002AF96178884201D2002060702078022812
:1023800008D1BA488079012804D16078002801D1A9
:102390000120607010BD10B5AF4C6078401EC0B217
:1023A00060702178022906D1B0498979012902D1CA
:1023B00008B90C20607000F006F96178814200D9FC
:1023C000607010BD2DE9FC47A94BAA4AAA49AB4849
:1023D00001F09DFFDFF884829F4DA9489D4CC8F80D
:1023E00018002878A41FA1490127A61E4FF0000A53
:1023F0004FF005090C2831D2DFE800F00610325307
:10240000657D7D7D7D7D7D7D924998F80000891FE9
:10241000FFF710FE2F70A078C0096AE068780028E6
:10242000A07802D040F0800001E020F08000A07091
:102430000220287020788DF8020020208DF80300FB
:102440008979684602F035FD9DF8020068702078B1
:102450000C2801D3012000E000207070BDE8FC874B
:102460008A796878012A06D01721884200D908465F
:10247000012A02D010E00C21F7E78DF806007078F1
:1024800008B1502000E041208DF80700002101A88C
:1024900002F00FFD9DF80600207003202870607880
:1024A00027E0687860708879012808D085F8009066
:1024B000A07800F00100687086F800A0CEE7042044
:1024C00028707078F7E720788DF80600687808B1F2
:1024D000502000E041208DF80700002101A802F003
:1024E000E8FC9DF80600207085F80090A07800F0C8
:1024F00001006870B2E7697832780029A17807FA9C
:1025000002F201D0114300E09143A1703178491CDF
:102510003170A2788F403A4201D0012100E00021C1
:1025200069700B2802D0401C287097E7494998F839
:102530000000891FFFF7EAFD544685F800A04C4BC8
:10254000504A4D49504801F0E2FEC8F8184085E76E
:1025500010B586B004460A281AD23F48007818B150
:102560003E480078A04204D005A92046FFF762FD4E
:1025700004E038480838D0F80200059005A96846FC
:1025800000F033F8414B00226946204601F00BFE73
:1025900006B0BDE8104001F09FBE10B53CA200217E
:1025A0000A2001F0A5FE324B364A3349364801F085
:1025B000AEFEAFF21901274801F066FEBDE81040FB
:1025C000002001F092BE24480078022803D003289E
:1025D00009D00120704725488079012801D01720B3
:1025E00070470C2070473B2070472DE9FC410546A1
:1025F00008788DF8060020200C468DF80700002191
:1026000001A802F056FC9DF80700009063789DF841
:10261000062022A1681C06F073FEA078000601D5F2
:10262000802000E02E20287000200D4E28740246E5
:102630000127A17807FA02F0014201D0B35C00E063
:102640002D23A818521CD2B24372072AF1D3BDE839
:10265000FC810000AC00002024010020880A00203A
:1026600050A400082530326868750000300A002048
:102670005125000865230008AD22000897230008B3
:10268000C12200084F43000839430008C523000851
:102690003C20414C41524D53203E00002025303219
:1026A0006868753A25303268687525632000000037
:1026B0002F4800210170416070472DE9F0412C4CFA
:1026C0002078002833D0214660784978277A4E1C3C
:1026D000CB1C4A1D002508317FB1042801D2F0B27D
:1026E00008E0082801D2D8B204E0102801D2D0B204
:1026F00000E0C8B240280FD210E0FB2801D9F0B2A8
:1027000008E0F72801D9D8B204E0EF2801D9D0B207
:1027100000E0C8B20A2801D225700020607020783D
:10272000002804D16068002801D080476560BDE8BA
:10273000F081104A927852B10D4B01221A7009B102
:10274000002200E0C0225A705860197270470028B9
:10275000FCD000470648007870470548007A08B169
:102760000020704701207047014840787047000002
:10277000240A0020300A0020704707480122002167
:10278000027041708270C17041710171817101727A
:10279000427282727047F0E7300A002038B501219A
:1027A0001C20FEF794FC1020ADF8000048248DF8A2
:1027B000034069467348FEF7A2FA4FF40060ADF893
:1027C00000008DF8034069466F48FEF798FA4FF411
:1027D0000050ADF800008DF8034069466B48FEF7E5
:1027E0008EFA38BD10B5FFF7D9FF6A486849C16055
:1027F0006949C1616949C16210BD10B501F030FE7F
:1028000067494A68821A0A2A04D34860BDE8104022
:1028100000F040B810BD70475E4A02EB00129068AD
:10282000916070475B4B9A6299619860704770B590
:102830005C48007888B140F2712148434FF6FF713F
:1028400001EAC0050324534E09E001F009FE06EB3E
:1028500004110968401AA84201D2012070BD204627
:10286000641EE4B2F1D270BD2DE9F04103240126CB
:10287000484F4FF0040808E007EB0415AE712E71C5
:1028800085F8058001F0ECFD2860641EE4B2F3D207
:10289000BDE8F081F8B54FF400513C48FEF785FAE9
:1028A0003F4C18B1207808B1012000E000208DF8DD
:1028B00000004FF400613448FEF777FA18B16078F1
:1028C00008B1012000E000208DF8010010212D4802
:1028D000FEF76BFA18B1A07808B1012000E00020E3
:1028E0008DF8020003246D462A4E06E0285D40B1B3
:1028F000002106EB041000F006F8641EE4B2F5D2E5
:10290000F8BD0121F5E770B5044640794006000E98
:10291000607119B340F00100607100F027F80428DD
:1029200023D32079012518B901F09AFD2060257183
:10293000A079002819D1A068002816D08047002867
:1029400013D0A57101221146E06802F023FEBDE814
:102950007040FF2232210120FDF755BD00F006F83E
:10296000042802D800202071A07170BD002104E06D
:1029700000F001021144C9B240080028F8D108460D
:102980007047000000080140000C014000100140A9
:10299000FCC900083C0A00200CCA00081CCA000838
:1029A000B4000020300A00203649087910B1002018
:1029B000087170470120FBE7704700B587B0A0B1F0
:1029C00001281DD0022825D000231A462EA103205D
:1029D00001F038FC00231A4630A1042001F032FC3B
:1029E00007B05DF804EB01F077BC0C23312230A175
:1029F000684606F085FC00231A466946184617E02B
:102A0000642231A1684606F07BFC0022324B694605
:102A100001200DE01B48007908B1592200E04E2248
:102A20002EA1684606F06CFC2F4B0022694602205E
:102A300001F0B9FB07B000BD10B501F02EFC08B1E4
:102A4000FFF79AFE294801F032FC01F026FCBDE8B0
:102A5000104001F087BC10B525A20021052001F02F
:102A600047FC274B274A2849284801F050FCAFF281
:102A700019011E4801F008FCBDE81040002001F0DB
:102A800034BC0000300A002046572020202020209F
:102A9000323032312F352F323900000055736572D4
:102AA0002020202020486F75416F68756900000064
:102AB00054656D706572617475726520256868640F
:102AC0002E25686875430000426174746572792030
:102AD00020202025756D5600B929000853686F77AE
:102AE0002046505325396300A9290008BC00002066
:102AF0003C20444941474E4F5354494353203E00E4
:102B0000BB2900084F430008392A00083943000850
:102B10008249C86070478148C068002800D00047DB
:102B200070477E4A01469068916070472DE9F05FDA
:102B3000DFF8E8B100230BF1100B58469BF800407A
:102B40009BF803509BF8021040784FF0010929B11F
:102B50009BF804105A4689B1AD1F10E008B1E41C7F
:102B600000E0E41EE4B2202C13D318B120248BF82B
:102B700002900EE000248BF805300AE00A35EDB231
:102B8000802D06D351B1002500B1537100208BF880
:102B90000400E7080026DFF8888112E080259370A2
:102BA0000120F4E708EBC610802105F044FE7142D5
:102BB00008EBC110802100F5607005F03CFE761C2A
:102BC000F6B23846BE42EDD314F0070229D0C00158
:102BD000A0F2FF314942FF2606FA02F709FA02F392
:102BE00007F0FF0A4FF0800C26FA02F703F0FF0906
:102BF0002CFA02FC89B200224346521C1E5CD2B25F
:102C000006EA0A0646EA09061E545E5C401C3E407F
:102C100046EA0C065E54491E80B289B2802AECD383
:102C20001DE0E4B1C5F18000C4F14001C0F34600ED
:102C3000C1F3C40100EBC1104646404401222946BD
:102C400005F0F2FD202C0AD0FA01802004E01118D2
:102C5000735C43F001037354401EC0B2F7D28BF88B
:102C600000408BF80350BDE8F09F7CB501F0F8FB05
:102C70002A4D69686A78411A914231D3A9700024BB
:102C80006860FFF71AFDA86805F1100628B1717990
:102C900009B9717839B980470446707918B1FFF7DE
:102CA00045FF707910B9FFF755FD00B101241D48AB
:102CB0004FF47A76007960B1A8781BA1B6FBF0F2E8
:102CC000684606F01DFB382364220021684600F0A8
:102CD000C7F800F043FA24B12878B6FBF0F068702A
:102CE0007CBD2820FBE70F4900238A780B4910316F
:102CF00052B10122012809D04A708B700B700A7101
:102D00008020C8704A7170474B7170474B708A7051
:102D1000202008700B71CB70F4E70000C400002085
:102D200024020020300A0020257500002DE9FF4F05
:102D300087B00D46149CFFF717FD2844169900F044
:102D4000FF0AAAEB0100C0B20390E00805900398C7
:102D500000F0070B0AEB0400C0B20090002078E0FE
:102D6000039800EBC900C4B204F10800C7B216987A
:102D700030B157456AD3402F68D80098844265D84F
:102D80001698FF2668B1544505D2AAEB0401FF202E
:102D90008840C6B205E00098874202D9381AFF265B
:102DA000C640E008C0010290DDE9090209FB02000B
:102DB0000190BBF1000F1AD1402C18D20024EB4F28
:102DC00011E007982044C5B2802D0AD201981599C8
:102DD000204400F0C5F90299304029447B5C03434C
:102DE0007B54641CE4B20A988442EAD32EE0F808CB
:102DF000C0010025049026E00798284400F0FF0851
:102E0000B8F1800F1DD201981599284400F0A8F957
:102E10003040402C09D2029AD44B08EB020100FA50
:102E20000BFC5A5C42EA0C025A54402F09D2049916
:102E3000CE4A4144CBF1080C535C20FA0CF003431A
:102E400053546D1CEDB20A988542D5D309F10100A7
:102E5000C0B205998146884282D30BB0BDE8F08F9D
:102E60002DE9FE4F00259A46914688460646DF0822
:102E70002DE0C5EBC50202EB0901082300930022F7
:102E80002038CCB2CDE90182C0B2B94900EB800054
:102E90004218052351462046FFF748FFB8F1000FBE
:102EA00012D04CB1601EB149C0B200EBC7104FF058
:102EB000FF320A547B2C07D2641DAC48E1B201EB0F
:102EC000C7114FF0FF3242546D1CEDB2761C3078C2
:102ED0000028CED1BDE8FE8F2DE9F0411D461646F3
:102EE0008846044605F0D0FCC0B2401C07F002FA48
:102EF0000746214605F0CFFC2B4632464146384670
:102F0000FFF7AEFF3846BDE8F04107F0CBB9014608
:102F1000FF2001E04006000E491EC9B201D300287F
:102F2000F8D170470146FF2000E04008491EC9B2B1
:102F300001D30028F9D170472DE9FF4F89B00C4625
:102F4000DDF86CB0FFF710FC20440FFA80FA0AF0AD
:102F5000FF00009016981A99C008089000984FF04A
:102F6000000900F00700C84603908A4508DA169960
:102F70001A985144814203DDA0EB0A000FFA80F950
:102F80000098584508DA014616980844584503DD6C
:102F9000A0EB0B000FFA80F816990AEB0100C0B203
:102FA00004900020CBE0DDE9000100EBC100C4B2D9
:102FB00004F10800C6B2189830B156457EDB402EA9
:102FC0007CD80498844279D8FF200290189870B178
:102FD000544505DAAAEB0401FF208840C0B205E0A1
:102FE0000498864203D9311AFF20C8400290E008B5
:102FF000C0010790DDE90B02019901FB0200069078
:10300000039820B1F008C001002705907FE000255B
:103010002BE009982844C6B21C98864223DA1998F6
:10302000864220DB802E1ED206981799284400F095
:1030300097F8029900EA010309F0FF00FFF767FF24
:10304000034008F0FF00FFF76DFF03405C450ADA1C
:10305000169821181A98814205DD079831184348BF
:10306000425C1A4342546D1CEDB20C988542D0D399
:1030700050E009983844C5B21C98854245DA199841
:10308000854242DB802D40D206981799384400F0E3
:1030900067F8029900EA010309F0FF00FFF737FF24
:1030A000034008F0FF00FFF73DFF03405C451DDAD9
:1030B000169821181A98814218DD00E03CE0079824
:1030C0002A492844DDF80CC00A5C03FA0CFC42EAE9
:1030D0000C020A540598DDF80CC02844CCF1080C09
:1030E0000A5C23FA0CFC42EA0C020A545E450CDA34
:1030F0001A98864209DD05981C4A2844039D115CF4
:10310000C5F10805EB40194311547F1CFFB20C9820
:103110008742AED3B9F1080F03DBA9F1080000B272
:1031200000E000208146B8F1080F03DBA8F1080099
:1031300000B200E0002080460198401CC0B208990F
:1031400001908842FFF42FAF0DB087E6C90800EB6D
:10315000C11006490844114605F06DBBFDF7E1B901
:103160000078002901D0C043C0B27047240200207B
:103170005BAF00080220FB49487000207047F94807
:1031800010B5806807F08EF8F74900200870F54800
:10319000F6490C3040680862BDE8104001F096B86E
:1031A000F04901204870002070472DE9F04FED4EA6
:1031B00085B0F088A0280BD2B078FF2808D0002076
:1031C00030717078F478012804D0022804D005E02A
:1031D0000120F5E7E41C00E0E41EE4B2002777706C
:1031E000FA2C01D9002402E0742C00D97424307820
:1031F000DF4D30B1A968286805F071FB05F04FFD7F
:10320000C4B20821CDE90017BB460C23D94A3821A6
:1032100020460297FFF78AFDF4703079B14648B92D
:10322000A968286805F05BFB2860E968686805F014
:1032300056FB6860296801914FF00008AA4668684B
:1032400005F02DFD0026C7B235460024D9F8080048
:10325000805D58BBA80005F01DFD019905F07CFDBF
:1032600024D8042000EB850005F014FD019905F039
:103270007DFD1BD2082000EB8400B84216D80C203C
:1032800000EB8400B84211D901231A46FA216420C8
:10329000CDF800B0FDF7B6F9D9F80820012188462D
:1032A0009155B9F80610491CA9F80610761C641C43
:1032B000E4B2F6B2052CC9D36D1CEDB2202DC4D3F7
:1032C000AD48019981420DDDAC4A914202DDCAF858
:1032D00000B001E0CAF80000DAF8081081F00041FF
:1032E000CAF80810019810F1FF4F07D3CAF800B0D0
:1032F000DAF8081081F00041CAF8081099F80400C3
:1033000000244E46A0BB3C2F32D3F02F30D2F078B1
:1033100005F0C0FC019905F01FFD29D8F0780C30AC
:1033200005F0B8FC019905F021FD21D801242346C0
:1033300022466421C820CDF800B0FDF763F990481B
:10334000CAF80400DAF80C005546B0F5000F02DBAD
:1033500080F00040E86005F043FA05F092FC6FF061
:103360001D0105F052FB4FF07E5105F00AFBA860ED
:103370007C48007920432BD13E2F03D8B8F1000FB1
:1033800020D125E0F02F0BD90123C8215C461A4635
:103390000846CDF800B0FDF735F9CAF8044011E051
:1033A000B8F1000F0ED101231A46FA21C820CDF83A
:1033B00000B0FDF727F96B487249CAF8041081780C
:1033C000491E8170DAF80C1081F00041CAF80C1027
:1033D0005546DAF8040005F062FCC4B2286805F02E
:1033E0005EFC4FF00809CDE9009B624AC0B2D846A6
:1033F0000223521F2146CDF808B0FFF797FC0025A5
:10340000DFF860A12E460024B700DAF80800405D1E
:1034100060B9CDE9009809EB8400564AC1B2F8B210
:103420000323D21ECDF80880FFF780FC6D1C641CBE
:10343000E4B2EDB2052CE8D3761CF6B2202EE2D32E
:103440005546BAF8062050A103A805F059FF0023FD
:103450001A46194603A8FFF703FDA878FF2815D0E0
:10346000464600244F464FF068080CE0CDE9007650
:1034700008EBC400C0B20723444A01210296FFF7BB
:1034800055FC641CE4B2A8788442EFD3E888A028F5
:1034900005D32023322200213DA0FFF71DFDA8788F
:1034A000FF2805D12023222200213BA0FFF714FD95
:1034B00005B00120BDE8F08F2A4810B50178C94356
:1034C0000170AFF21930FFF72CFB364A3649374806
:1034D000FFF7A8F9BDE81040002000F006BF10B5C6
:1034E000AFF23930FFF71DFB2E4A2F492F48FFF767
:1034F00099F9BDE81040002000F0F7BE70B500203B
:103500000124AFF22503024629A100F09BFE02250B
:10351000AFF25B03002228A1204600F093FE294B66
:10352000002229A1284600F08DFEBDE8704000F081
:10353000D3BE0C4810B50C3000F0B9FEBDE8104009
:10354000012000F00FBF074810B522490C3000F0F1
:103550009BFE214A21492248FFF764F92148FFF7E1
:10356000E0FA41E0DC000020A0010020880A0020F1
:103570006C0A002019A400080000FC4200007043FF
:103580000000704200007C4225750000A4A40008E1
:1035900057494E210000000047414D454F564552C6
:1035A000210000007531000809360008A13100082B
:1035B000726573756D6500006175746F206D6F6461
:1035C000650000007F310008657869742067616DCF
:1035D0006500000047350008FD3F0008D53F0008A2
:1035E0000B400008214100082AA20021032000F01E
:1035F0007FFE2C4B2C4A2D492D4800F088FEBDE85B
:103600001040002000F071BE10B52A4CA06806F0F2
:1036100049FEA078FF2805D001212748FFF789F847
:10362000012010BD00F001F8FAE770B52349012030
:103630000870002000F059FE00F012FF05F0DAF8E3
:10364000AFF29940FFF76DFA1D4A1E491E48FFF779
:10365000E9F8184C1D48002565704FF08541016060
:103660001B4941604FF03F4181601A49C160217997
:10367000A0684A1E104207D109B106F013FE0121CD
:10368000A02005F011F9A0600320A070E5803A2089
:10369000E07070BD67616D652073657474696E67F5
:1036A00000000000FD3400084F43000833350008D7
:1036B00039430008DC00002047350008A001002045
:1036C0007531000809360008A13100086C0A002095
:1036D000000058429A9919BF0220F24988700120CF
:1036E0007047F04810B5C078FF2805D00121EE489A
:1036F000FFF71FF8012010BD00F0AEF9FAE7E94925
:103700000120887070472DE9F04FE64B85B003F13A
:10371000080299785078012902D0022904D006E0E5
:10372000032804D2401C01E008B1401E5070002460
:103730009C70517890780907090E9146884202D909
:10374000A0F1020002E003D200F1020089F80200B9
:10375000D87898464FF0800BFF287DD0D34D0026B7
:1037600006EB46004719295CBA78891AC9B2295470
:10377000C939262910D205F800B005F031F8C11773
:1037800000EB917121F00301401A00017870B8F844
:103790000610491CA8F80610761CF6B2032EDFD3DB
:1037A0000021002001EB41067719814212D000EB85
:1037B000400202EB050C7B789CF801C0634509D1FF
:1037C000AB5DAA5C934205D902F10F0C634501D2AF
:1037D0001032AA55401CC0B20328E6D3491CC9B216
:1037E0000329DED399F80000B0BB0026DFF8C0A2A1
:1037F000012706EB4600295C0F2937D22844407880
:10380000801CC1B299F80200801CC0B2814203D36F
:1038100000F10C03994205D90C31814226D30C30BA
:10382000814223D889F8007000F01AFEC8F8100011
:1038300098F803004146401EC0B288F80300FF28F4
:1038400028D0DAF8BC015146F0B30020C1F8BC0121
:10385000FF221E21002000E00CE0FCF7D4FD012334
:103860001A46FA2164200094FCF7CCFE761CF6B2CE
:10387000032EBED300F0F4FD99F800104A4610273D
:10388000A1B3D8F810104346411AB1F57A7F23D37B
:1038900014702EE0C8888A88904203D90F70A8F867
:1038A000040001E088F80040DAF8BC01514678B124
:1038B0000020C1F8BC01FF22FA210020FCF7A3FD83
:1038C00001231A46FA2100E004E008460094CBE701
:1038D0000120EEE70120B9E7B1F5AF7F09D25978B1
:1038E000022904D0022188F8011006E001E0FE213F
:1038F000F9E788F80140117809B140060DD5CDE906
:103900000074029499F8021098F801000F230844FB
:10391000C1B2684A0020FFF709FA98F8030046464A
:10392000FF2865D00325DFF8848110E0CDE900741D
:1039300005EB450000EB080102944978737818F80C
:1039400000001944C9B20F235A4AFFF7EFF96D1E60
:10395000EDB2EBD2DFF84C81002508F10B08082707
:10396000B14618F805004146801FC0B208F80500AE
:103970008038772801D201F805B00026CDE900741F
:10398000029499F801004B4A00EB06101030C1B2C6
:1039900018F805000823083AFFF7C8F9761CF6B2B4
:1039A000032EEBD36D1CEDB2032DDAD34E46B9F8DE
:1039B000062041A103A805F0A3FC01235D220021FC
:1039C00003A8FFF74DFA00254FF020080CE0CDE9E1
:1039D000007408EBC500C0B20723384A01210294E5
:1039E000FFF7A4F96D1CEDB2F0788542EFD32FE01C
:1039F00000231422194632A0FFF76EFA1023142276
:103A0000002132A0FFF768FA20231422002131A000
:103A1000FFF762FA307828B130231422002130A059
:103A2000FFF75AFAF28824A103A805F069FC1023D5
:103A30006022002103A8FFF713FAB2881EA103A891
:103A400005F05EFC20236022002103A8FFF708FA9E
:103A500005B00120BDE8F08F70B5002000F045FCF6
:103A600000F0FEFC04F0C6FE2148FFF75AF8214A98
:103A700021492248FEF7D6FE00200C4B802400EBA3
:103A800040010501CA18401C55709070C0B25C54CA
:103A90000328F4D303480021C18081700321C17041
:103AA00070BD0000F0000020CD4200087C0A00201C
:103AB000000021422DA4000825750000A4A40008E0
:103AC00047414D454F5645522100000053636F72E8
:103AD000653A00004869676873636F72653A000071
:103AE000214E4557204849474853434F52452100EE
:103AF00007370008D9360008E3360008FF3600080B
:103B000010B5002001241C4B02461CA100F09AFBBA
:103B10001D4B00221DA1204600F094FBBDE8104083
:103B200000F0DABB10B51C4800F0C1FBBDE8104046
:103B3000012000F017BC194910B50120C8700220FF
:103B400017A2002100F0D4FB184B194A19491A4852
:103B500000F0DDFB194A1A491A48FEF763FE1A48BD
:103B6000FEF7DFFFAFF231010B4800F08DFBBDE83F
:103B70001040002000F0B9BB2B360008427265618E
:103B80006B6F757400000000593A000843617220A1
:103B9000446F64676500000004010020880A00206B
:103BA0003C2047414D4553203E000000013B0008AA
:103BB0004F430008253B000839430008FD3F00083B
:103BC000D53F00080B4000082141000870477047AE
:103BD0000A21B0FBF1F070470A21B0FBF1F201FBC2
:103BE0001200704738B56F4C207804280BD16E480E
:103BF0006EA10278684605F083FB28233822002155
:103C00006846FFF72DF920786A4D68B9E87A6AA10D
:103C1000401CC0EB8012684605F072FB0023742242
:103C200019466846FFF71CF9207805280AD16A79F9
:103C300062A1684605F064FB00237A2219466846B3
:103C4000FFF70EF9002038BD5A49487920B100200D
:103C500048715B49087070470120F9E752490878BC
:103C60004008401C1E2800D90A20400008707047F8
:103C70005049887810B10020887070470120FBE718
:103C80004C4910B5C87838B10020C87030B1A020B8
:103C900001F0F3FEC02005E00120F6E7A12001F0CD
:103CA000ECFEC820BDE8104001F0E7BE414948786D
:103CB00010B10020487070470120FBE73D4910B566
:103CC000C87A401CC4B2032C00D90024CC728120D5
:103CD00001F0D3FE641CC4EB8410BDE81040C0B2F8
:103CE00001F0CBBE10B500F02CF8BDE8104000F09C
:103CF000F3BA10B500F0D1FA08B1FEF73DFD314836
:103D000000F0D5FA00F0C9FABDE8104000F02ABB77
:103D100010B52DA20121062000F0EAFA2D4B2E4A03
:103D20002E492F4800F0F3FA1E492E488861AFF261
:103D30001F01244800F0A8FABDE81040002000F060
:103D4000D4BA10B51B4C2849284BE07A01EBC012BD
:103D500027A1002000F076FA284B294A29A101204A
:103D600000F070FA294B2A4A2AA1022000F06AFAD0
:103D7000A0782A492A4B01EBC0122AA1032000F0A7
:103D800061FA2B4B2B4A2CA1042000F05BFA6079DE
:103D90002A49BDE8104001EBC012294B29A105209A
:103DA00000F050BA880A0020C40000202568687519
:103DB00053000000300A0020257800002564000030
:103DC000180000200C0100203C20444953504C4175
:103DD00059203E00E53C00084F430008F33C000832
:103DE00039430008E53B000833A70008BD3C000844
:103DF0004272696768746E6573730000AD3C0008B9
:103E000033AA0008496E766572740000813C000890
:103E1000B3AD0008526F746174650000B3AA000866
:103E2000713C0008416E696D6174696F6E730000CA
:103E30005D3C000830B800084650530033A9000824
:103E4000493C00084C4544730000000070B5002058
:103E50000124324B324A33A100F0F4F90225334BEE
:103E6000334A34A1204600F0EDF90324344B354A9F
:103E700035A1284600F0E6F90425364B364A37A12D
:103E8000204600F0DFF90524374B384A38A1284690
:103E900000F0D8F9384B394A39A1204600F0D2F960
:103EA00000F039F8BDE87040384B394A39A100F0CC
:103EB000C9B910B5394800F0FAF9BDE81040012041
:103EC00000F050BA10B53648FEF72BFE354A364999
:103ED0003648FEF7A7FC00F01EF835A2012100F0DD
:103EE00007FA374B374A3849384800F010FA384952
:103EF0002A4800F0C9F9BDE81040002000F0F5B9EB
:103F000010B5002228491046FEF78CFCBDE8104091
:103F10002F4800F045B90620704700009B25000897
:103F2000B0B40008416C61726D7300002755000841
:103F300030B60008466C6173686C6967687400008D
:103F4000154E0008B0B5000853746F707761746344
:103F500068000000DB580008B3A4000854756E65C3
:103F6000206D616B65720000373B0008B3A6000846
:103F700047616D657300000091490008B0B6000804
:103F800053657474696E6773000000007342000823
:103F9000B0B70008457869740000000014010020E3
:103FA00021410008FD3F0008D53F00080B400008F4
:103FB0003C204D41494E204D454E55203E000000CD
:103FC0004D3E00084F430008B33E00083943000847
:103FD000C53E000810B5FEF7BDFB10B1FEF7BDFBF6
:103FE00028B1F648C17821B1006900B180470120AD
:103FF00010BD0121C170FFF783FFF8E7EF4810B54E
:10400000406900F0B5F9012010BDEC4810B5C0685A
:1040100000F0AEF9012010BD10B586B020221821A5
:10402000684604F001FCE54C606804F02DFC0921B1
:10403000A1EB500069460844616804F02CFC0023A1
:104040001A4619466846FEF70BFF06B010BD2DE96B
:10405000FE43DFF868834021DA4B98F80000002621
:10406000A0EB800001EB0011D548807898B158682A
:104070000124814213DDA1EB00024FEAE27502EB5D
:10408000957204EBA202D2B2102A00D91022104479
:104090005860814201DC596011E001260FE00EDA20
:1040A000421AD51702EB957204EBA202D2B2102A83
:1040B00000D91022801A58608142EEDBEBE75C6881
:1040C000103CFFF7A9FF00250827CDE90075242340
:1040D000BD4A0E212E200295FEF728FECDE900757F
:1040E0002423BA4A2A212E200295FEF71FFE4746B6
:1040F0000BE004F11F009F2804D2E2B22946002001
:1041000000F04AF96D1CEDB23034B878A842F0D80E
:1041100039780022012000F03FF93046BDE8FE83E7
:104120002DE9F047DFF89482002698F8080038B1AE
:10413000FFF78DFF0646D8F8180060B356BB27E09E
:10414000FFF76AFF98F8020098F80150072800D995
:1041500007202844C7B22C464FF0080A15E0611B1F
:104160000AEBC10000F0FF0998F80000A04205D159
:1041700000224B46114696A0FEF772FE4A462146A3
:10418000022000F009F9641CE4B2BC42E7D3D2E794
:10419000804708B1012600E000263046BDE8F087E0
:1041A0000121FEF7C6BAFEB5864C0F461E46A17821
:1041B0001546814235D1214660780B7860B10128DF
:1041C00030D0022831D003282BD1002E29D0A3B320
:1041D0003046BDE8FE40E3E7184604F05BFD7D494C
:1041E00004F0D5FB04F088FD7B4E7C4B324604F096
:1041F000BFFC32467A4B04F014FC04F090FD04F04E
:104200007BFD06F0ADF800202021CDE900100290E2
:104210000DB12A4600E0734A102120782023FEF7D2
:1042200085FDFEBD3823002200E0062203B038469B
:10423000BDE8F0400021FEF713BE03B0B446BDE870
:10424000F040604770B504465E4886B01D468078F1
:104250001646A04208D1684604F01DFB2B463246A4
:1042600069462046FFF79FFF06B070BD5348C078EF
:10427000704710B500F09CF850480021C1700162F1
:10428000BDE81040FEF747BC4C4B1A6A8A4200D08A
:104290004260007818701962704748480178807849
:1042A000401E814201D1012070470020704700B5B7
:1042B0000246FFF7F2FF0100404804D000211170D0
:1042C0005168016200BD0078107000BD3B48006A73
:1042D00000B10047FFF714BE38488078401EC0B2D6
:1042E000AFF21703404A4149ACE70021FEF721BA7B
:1042F00070B515460E46044600F05AF82F4B0020C4
:10430000641C587018709C701E725D6070BD10B592
:104310002A4CE3610C3484E8070010BD274A50782A
:104320001178C31D994202D3891FC8B202E08142AD
:1043300000D208465070704720490878401CC0B22F
:1043400008708A78904201D300200870E6E71B4A83
:104350001078401EC1B211709078814201D3401E86
:104360001070DBE7154902460320097800F014B805
:1043700010B504461148C07800280CD0FEF7EAF9C1
:1043800018B1FEF7EAF9002805D0002C03D0A446A6
:10439000BDE81040604710BD03460A484370817075
:1043A00002700648C269002A01D0084610477047CB
:1043B000024814210C3004F03EBA0000880A0020A4
:1043C000300A00201C01002068B400088CB40008EA
:1043D0003E0000000000C0421F85EB51B81EF93FAF
:1043E000B81EE93F30B50008B0B700084BA400087C
:1043F0007FB54FF4E060FDF74DF81D208DF80C00FF
:1044000001208DF80F0000248DF80D408DF80E402E
:1044100003A8FDF744F801210220FCF761FE234DBB
:104420002846FDF78FF8ADF806403220ADF80400BD
:10443000ADF8024040F29F50ADF8000069462846B2
:10444000FDF718F901212846FDF7E2FD012211468A
:104450002846FDF7CCFB01212846FDF7B3FB7FBDC5
:1044600013480068704770B5104C01212046FDF7D5
:10447000D2FDA0B101F03AFE0D484FF47A72016806
:10448000491CB1FBF2F501600A48012302FB15113A
:10449000037021B9037008480178491C0170204657
:1044A000BDE870400121FDF7C2BD000000040040DE
:1044B00028010020600100206101002010B5FE48A5
:1044C000FFF76EFE012010BD10B5FC48FFF768FE37
:1044D000012010BD2DE9FE4F0446037A407A626840
:1044E00003FB00F1C1F3C707E17AA57A01FB0722BC
:1044F00094F8009094F80180667B4FF0000C3EB178
:1045000035B1FF2D04D0491ECEB2FF2E05D005E0F7
:10451000CDE9000CCDF808C013E0267B291A091F4D
:104520000090C9B2CDE901C1E24641464846FEF7D6
:10453000FDFB617ACDE9001A02956068237A06FBDB
:10454000070241464846FEF7F1FBBDE8FE8F2DE924
:10455000F04FDB48DFF86C93DFF86C838078002441
:1045600089B04FF0010BA9F10805002873D098F825
:104570000000E9794746884254D0AC70EC7085F869
:1045800004B0B878FFF724FB06466879FFF720FBF4
:10459000864201D0012000E0002089F80000B878B0
:1045A000FFF71AFB06466879FFF716FB864201D033
:1045B000012000E0002089F80100B8467878FFF774
:1045C00007FB0646A879FFF703FB864201D00120CE
:1045D00000E0002089F802004F4698F80100FFF73C
:1045E000FBFA0646A879FFF7F7FA864201D00120C8
:1045F00000E00020F870B946474698F80000FFF741
:10460000E7FA0646E879FFF7E3FA864201D001208F
:1046100000E0002089F80400B87868717878A87103
:104620003878E871287960B3A878FF21032801D889
:10463000401C06E0062801D8C01C02E010280BD858
:10464000401DA870C0B21C2800D3A970E8780128CA
:1046500007D8401C08E00FE01628EDD91C28E7D940
:10466000F3E70D287DD8C01CE870C0B2142808D329
:10467000E970A8781C2804D9AC70EC702C71AC607F
:104680002C7368208DF80C001C208DF80D008F48CD
:1046900004900B208DF8140010208DF81500E87898
:1046A0008DF81600464698F80000FFF791FA4FF093
:1046B00005088DF817008DF8188099F804008DF81A
:1046C00019004F4603A8FFF705FF74208DF80C0072
:1046D0003078FFF781FA4FF009098DF817008DF84F
:1046E000189028798DF8190003A8FFF7F3FE14201D
:1046F0008DF80D0013208DF814004FF0180A74483F
:104700008DF815A00490A8788DF816003C208DF83F
:104710000C007078FFF75CFA8DF817008DF81880A0
:10472000B8788DF8190003A8FFF7D4FE53208DF850
:104730000C007078FFF750FA8DF817008DF818907C
:10474000F8788DF8190003A8FFF7C4FE8DF80CB0B7
:10475000B078FFF73DFA8DF817008DF8188038789B
:1047600000E036E08DF8190003A8FFF7B3FE8DF8DE
:104770000CA0B078FFF730FA8DF817008DF818907C
:1047800078788DF8190003A8FFF7A4FE51484FF47C
:1047900061610068B0FBF1F201FB1200B0F5E16F5E
:1047A00008D9CDE900A406234B4A142131200294F4
:1047B000FEF7BCFAF0788DF81C008DF81D4014232C
:1047C0006822002107A8FEF74BFB287909B0BDE855
:1047D000F08F14287FF63DAF4AE72DE9FE4300F045
:1047E00057F8FFF7B4FE804601F0B8F835491424B5
:1047F0000839012000F03DF8324F0025083F082617
:1048000048B1CDE9006502951023344A3978204635
:10481000FEF78CFA28242B490120C91F00F029F843
:1048200048B1CDE90065029508232D4A79782046E4
:10483000FEF77CFA0C3400F0FBFA40B1CDE90065DC
:104840000823284A382120460295FEF76FFA404691
:10485000BDE8FE8310B52448FEF763F9234A2449D6
:104860002448FDF7DFFF0021BDE810400846FDF7B2
:1048700060BF0A7818B1382A05D9521E02E0402AD2
:1048800004D2521CD2B20A70012070470020704737
:1048900010B50D4C18498AB0207901EB800107A8AA
:1048A00003F0F9FFA079154901EB800108A803F096
:1048B000F2FFE17908A823E0E1090008836300081A
:1048C000300A002034010020610100207AB3000882
:1048D00040B100082801002056B4000833AF00089A
:1048E00053AF0008ABA40008DB470008C944000828
:1048F000D53F0008BD44000858A4000874A400086F
:10490000CDE90001637907AA05A102A804F0F8FC2B
:1049100000230C22194602A8FEF7A2FA0AB010BD25
:1049200025732025303268687520257320323025A4
:10493000303268687500000010B5204B204A21A174
:104940000020FFF77FFC224B224A23A10120FFF722
:1049500079FC234B234A24A10220FFF773FC244B4C
:10496000244A25A10320FFF76DFC254B254A26A1EB
:104970000420FFF767FCBDE81040FFF7ADBC10B5A1
:104980002448FFF794FCBDE810400120FFF7EABC83
:1049900010B521A201210520FFF7AAFC224B234AD2
:1049A00023492448FFF7B3FCAFF21B011948FFF776
:1049B0006BFCBDE810400020FFF797BC995300083E
:1049C00033A5000854696D65202620646174650074
:1049D000A94A0008B3A50008536C65657000000083
:1049E000AD4B000833A60008536F756E64000000DD
:1049F000113D000833AE0008446973706C617900A2
:104A0000572A000830B70008446961676E6F7374F5
:104A1000696373003C0100203C2053455454494EC7
:104A20004753203E00000000394900084F4300086A
:104A30007F4900083943000808B52848007870B954
:104A4000274828A1007800EB8000C2B2684604F035
:104A500057FC2823382200216846FEF701FA00207F
:104A600008BD1F490878401CC0B20C2800D900209E
:104A70000870704710B51D4B1D4A1EA10020FFF79E
:104A8000E1FBBDE81040FFF727BC10B5FFF705FCC0
:104A9000040001D0FDF770FE1848FFF708FC20461F
:104AA000BDE81040FFF75EBC10B515A20121022041
:104AB000FFF71EFC154B164A16491748FFF727FC4F
:104AC000064916488861AFF21F010C48FFF7DCFB6E
:104AD000BDE810400020FFF708BC0000880A002055
:104AE000300A00202568687553000000634A0008FA
:104AF000B3AE000854696D656F7574004401002001
:104B00003C20534C454550203E000000754A0008AB
:104B10004F4300088B4A000839430008394A00080F
:104B200008B540484049007820B1012804D0022847
:104B300007D10EE00A7A00E04A7A3CA1684604F008
:104B4000DFFB00237A2219466846FEF789F9002028
:104B500008BD8A7AF1E710B5334CA07A00F03FF82F
:104B6000A07210BD10B5304C607A00F038F8607259
:104B700010BD10B52C4C207A00F031F8207210BD19
:104B800010B500F032F8BDE81040FFF7A5BB10B536
:104B9000FFF783FB040001D0FDF7EEFD2448FFF78B
:104BA00086FB2046BDE81040FFF7DCBB10B521A214
:104BB00001210320FFF79CFB214B224A2249234875
:104BC000FFF7A5FB174922488861AFF21F0118487B
:104BD000FFF75AFBBDE810400020FFF786BB401CE2
:104BE000C0B2032800D90020704770B50E4C194D93
:104BF000194B207A19A105EBC0120020FFF722FB08
:104C0000607A174B05EBC01216A10120FFF71AFBC3
:104C1000A07A164B05EBC012BDE8704014A102202B
:104C2000FFF710BB880A0020300A0020256400002E
:104C30004C0100203C20534F554E44203E000000C4
:104C4000814B00084F4300088F4B00083943000890
:104C5000214B0008B3AB0008734B00085549000016
:104C6000654B0008416C61726D730000574B000882
:104C7000486F7572206265657073000010B5012180
:104C80007748FDF756FD012010BD10B5754C207812
:104C9000012801D010B103E0002000E001202070C5
:104CA000FFF7DEFBA060012010BD10B56D4C0020A9
:104CB0006060FFF7D5FBA060012010BD2DE9FE4329
:104CC00000F04CFE67484FF47A73674C40683C2212
:104CD000B0FBF3F1A0420ED2B0FBF3F403FB1400DF
:104CE0000A23B0FBF3F0C5B2B1FBF2F002FB1016E1
:104CF000B1FBF2F00DE0B1FBF2F002FB1015B1FBDD
:104D0000F2F0B0FBF2F302FB13064FF46160B1FB6B
:104D1000F0F0C0B28046FEF75BFFC0EBC00100249C
:104D2000C1EB8011DFF844911827CDE9007401EB45
:104D300009021323142101200294FDF7F7FF4046D6
:104D4000FEF74AFFC0EBC001C1EB8011CDE9007452
:104D500001EB09021323142118200294FDF7E6FF4A
:104D60003046FEF735FFC0EBC001C1EB8011CDE945
:104D7000007401EB0902132314213C200294FDF777
:104D8000D5FF3046FEF728FFC0EBC001C1EB801114
:104D9000CDE9007401EB090213231421532002947E
:104DA000FDF7C4FF2846FEF713FF00EB400101EBBF
:104DB000C0002F4E4FF01008CDE9008406EB4002F2
:104DC0000B231C2168200294FDF7B0FF2846FEF754
:104DD00003FF00EB400101EBC000CDE9008406EBCE
:104DE00040020B231C2174200294FDF79FFFCDE9A4
:104DF000007406231F4A142131200294FDF796FF08
:104E000000F0D2F8002330221946FEF729F80120DD
:104E1000BDE8FE8310B51848FDF783FE174A184910
:104E20001848FDF7FFFCBDE810400020FFF75DBA11
:104E30000C480078012800D00020704710B5094CBC
:104E4000207801280BD1FFF70BFBA1686268411A9B
:104E50001144C4E901100C48814200D9606010BDC2
:104E6000CD4200085401002080EE360040B1000819
:104E70007AB3000856B40008BD4C00087D4C000809
:104E80008B4C0008AB4C0008FF29751510B54FF48A
:104E900000616A48FBF789FF012800D0002010BD9F
:104EA000F4E76749002008707047654900200870E2
:104EB00070478278C378012904D0412B15D0502B3C
:104EC00017D01AE0202B0FD10C2A06D302D9A2F159
:104ED0000C02D2B24FF0500104E00AB94FF00C02BC
:104EE0004FF04101C170827070470C2A05D1002239
:104EF00003E00C2A01D20C32D2B22021F2E710B525
:104F00004F49026841F8012F406848604C49002031
:104F1000491C08704B4881794948401CFFF7C9FF7C
:104F2000BDE81040FDF779B9800701D00020704737
:104F300001207047491CC9B200F5FA60032902D26A
:104F40000346401E00E0831E1A44C1EBC10303EB7D
:104F500001110923B1FBF3F1D2B21144C21700EBE6
:104F6000927201EBA201642290FBF2F2891A4FF4D3
:104F7000C87290FBF2F008440721001D90FBF1F28B
:104F800001FB1200401EC0B2FF2800D1062070476E
:104F90002D4A00B5125C012804D10846FFF7C4FF72
:104FA00000B11D22104600BD254808B5401CC1783F
:104FB00000914378827825A1284804F0A1F9274878
:104FC00008BD1F4810B50178002936D00024431CC5
:104FD000047018783C2830D11C705878401CC0B23E
:104FE00058703C2829D15C709878401CC0B29870E9
:104FF000182822D1D9799879FFF7CAFF9C7059797E
:105000000122491CC9B2401C5971814203D19879CF
:10501000401C98715A7198790D2807D19A71D879E6
:10502000401CC0B2D871642800D1DC711879401CD2
:10503000C0B21871072800D11C7110BD000C0140CE
:1050400060010020300A0020B0B800082530326826
:1050500068753A253032686875256300AC0A00200F
:1050600010B5EB4CEB4920788871FDF785FB04F116
:105070000C00FFF744FFE8480168E16040682061E8
:105080000120607010BD10B5FFF761F9E3480078AA
:1050900018B1022801D0042803D1BDE81040FFF761
:1050A00056B910BDDA4810B5001DFFF700F9FFF73B
:1050B000F4F8BDE81040FFF755B910B5FFF73CF91B
:1050C000D648007818B1022801D0042803D1BDE8E1
:1050D0001040FFF731B910BD7CB5D14E0E223078AB
:1050E000082829D2DFE800F0280C0F2A2C04060A31
:1050F0001C2501E031251122102406E05B25FBE789
:105100001B251C2200E03F25202421462846FEF7CF
:105110001DF83078062815D0002104281AD072789E
:10512000012821D0BFA1684604F0EAF823462A46A8
:1051300001216846FDF794FE00207CBD5425E3E77D
:105140006225E1E77078B94901EB8001684603F018
:10515000A2FBEBE7707808B1412000E050208DF809
:1051600000008DF80110E1E732201AB131228DF8EC
:10517000002002E08DF8000034208DF80100682046
:105180008DF8020072208DF803008DF80410CDE731
:10519000A3480078082815D2DFE800F014040614AC
:1051A000040E10120120704799480078012801D0A0
:1051B000172070470C2070471F2070470B20704746
:1051C000632070473B20704710B5954C6078401CB9
:1051D0006070FFF7DDFF62780021904200D26170BD
:1051E00020788B4A022802D0052803D006E01078E8
:1051F000012803D1607808B901206070517010BD9A
:1052000070B5874C824D6078401E10F0FF006070D2
:105210000CD12078022802D0052805D006E0287895
:10522000012803D10C2000E01F206070FFF7B0FFC1
:105230006178814200D960700020687070BD70B5DF
:1052400000F0DBF8764C724A207858B102F10C0578
:1052500001280BD0022813D00328607817D030B370
:10526000412025E00120207010781CE0684861781A
:1052700011700C30FFF71DFEA8786070022004E06A
:105280006078A870687860700320207070BD6870C6
:105290001078012801D020200AE004202070E8784E
:1052A000412802D00020607070BD0120FBE7502033
:1052B000E870BDE8704000F093B870B500F09DF85C
:1052C000574C534D20780C3570B1052810D0062866
:1052D000607816D0E8716A79A979FFF72BFE2871FA
:1052E000BDE8704000F07CB805202070687913E0BC
:1052F0006078687108B90120687106202070A8796B
:105300000AE0A871E979FFF743FE6979814200D983
:10531000687107202070E879607070BD30B53C4C32
:1053200042490C3487B0A07901AD01EB800106A899
:1053300003F0B1FAE0790090627906AB3CA128460F
:1053400003F0DEFF404B002201A90120FEF72BFFF6
:10535000E17802A8202901D00C2200E0182263780D
:10536000CDE90031A37839A103F0CAFF3E4B0022FA
:1053700002A90320FEF717FF2548407808B13BA19A
:1053800000E03CA13D4B00220520FEF75BFF07B08B
:10539000BDE83040FEF7A0BF1F4910B51C480A68A1
:1053A000C260496801611B4935A2897901700021F9
:1053B00041700620FEF79CFF354B364A3649374888
:1053C000FEF7A5FFAFF22F011148001DFEF75CFFAD
:1053D000124901200870BDE810400020FEF785BF8B
:1053E00010B50F4800242A4B04702A4A2A492B483A
:1053F000FEF78DFF0948846110BD10B5244B284A83
:1054000025492848FEF783FF04492748886110BDD5
:105410006C010020300A002061010020880A002071
:1054200024010020253032686875000074A400084B
:1054300020202025303268687520257320323025E1
:105440003032686875000000BB520008202020251B
:105450006868756872202530326868753A25303280
:1054600068687525630000003F5200085361766547
:105470006400000053617665000000006150000880
:105480003C2054494D4520262044415445203E00AF
:105490001D53000887500008A5500008BB500008A5
:1054A000C951000801520008D950000810B5012167
:1054B0002548FDF73EF9012010BD244A5188B1F579
:1054C000FA7F0AD23220B1FBF0F000EBC00303EB0D
:1054D000001001EB4000323000E00020508001203D
:1054E000704770B5194D4FF480646888A0B1FEF71D
:1054F000B7FF69686A88411A91420BD368602878BF
:1055000090F00100287000D0FF20C24321461048CF
:1055100003F08AF9012070BDFF2221460C4803F0F8
:1055200083F9002070BD094910B500204880094862
:10553000FDF7F7FA084A09491046FDF773F9BDE887
:1055400010400020FEF7D1BECD42000880010020AF
:1055500024020020E3540008AD540008BB540008A6
:10556000F8B5194D00262978686850F82100491CC3
:1055700084B22970022C0BD014490091010CAB7835
:105580006A782046FBF73EF8002C00D1AE70F8BDDB
:105590002E70E6E70C4B30B49C78A24206D39A708A
:1055A000586059700020187030BCD9E730BC704783
:1055B00038B5002403462246214620460094FBF7D6
:1055C00021F80148847038BD880100206155000829
:1055D00010B5CE4C6179A279914200D168B1A17128
:1055E00011B1012909D103E003220221C84802E0D8
:1055F00003220221C748FFF7CDFF607948B1012897
:105600000CD10E2340220021C3A0BDE81040FDF7BD
:1056100027BC0E2340220021C1A0F6E710BDBB49E4
:105620004879401EC0B24871FF2801D1012048715D
:105630000878401E10F0FF00087001D1B4200870F7
:105640000120704710B50320FFF7B2FF0121B648D3
:10565000FDF76FF8B5490120C1F8BC0110BDAB4999
:1056600000224879401CC0B24871022800D14A711A
:105670000878401CC0B20870B42800D10A7001201C
:10568000704710B53F2810D83F290ED801F0070306
:1056900001249C40E3B2C908A54C00EB8110215CB9
:1056A0000AB1194300E09943215410BD2DE9FC4F84
:1056B0000026A2EB000C81465F1A701E3546884614
:1056C000BCF1000F02DD4FF0010102E003D14FF009
:1056D0000001009102E0CCF1000C0090002F02DDEF
:1056E0004FF0010002E003D14FF00000834602E0DA
:1056F0008346C7F10007BC4501DD644600E03C4637
:10570000601C4FF0000A019015E008F0FF0109F05D
:10571000FF000122FFF7B5FF66443D44A64202DDCB
:105720000099361B8944A54201DD2D1BD8440AF19E
:1057300001001FFA80FA01998A45E6DDBDE8FC8F79
:1057400072490878401CC0B20870B42801D100200A
:1057500008707047FEB5FFF7F3FF6C4C0027744DDF
:10576000E760744E94F800C0183DE06800EBCC018F
:1057700001EB410200EB4001B35C6B54324429441D
:1057800053784B709278401C8A70E0600828ECDBFC
:10579000684EA760603EA06806EB0012106800EB40
:1057A0004001685C29442238C0B260704978491EC3
:1057B000C9B2E170526802EB4203EA5C2B44223A20
:1057C000D2B2A2705B785B1EDBB22371FFF76EFF73
:1057D000A06806EB0012506800EB4001685C2944A9
:1057E0002238C0B260704978491EC9B2E17092682F
:1057F00002EB4203EA5C2B44223AD2B2A2705B78FD
:105800005B1EDBB22371FFF751FFA06806EB0012AD
:10581000906800EB4001685C29442238C0B2607097
:105820004978491EC9B2E170D26802EB4203EA5CD2
:105830002B44223AD2B2A2705B785B1EDBB223719A
:10584000FFF734FFA06806EB0012D06800EB4001C0
:10585000685C29442238C0B260704978491EC9B2D8
:10586000E170126802EB4203EA5C2B44223AD2B2A6
:10587000A2705B785B1EDBB22371FFF717FFA06895
:10588000401CA060062886DB4020CDE900070346C7
:105890000021274A08460297FDF748FA4FF40071A5
:1058A000234802F0C8FF1C234022002122A0FDF75C
:1058B00013FB28234022002121A0FDF70DFB00202F
:1058C000FFF786FE1949D1F8BC0120B10020C1F8CC
:1058D000BC010020FEBD0120F9E710B51B48FDF713
:1058E00020F91B490020FCF797FF1A490120FCF71B
:1058F00093FF19490220FCF78FFF0120FFF768FE94
:10590000BDE810400020FEF7F0BC00009001002030
:105910000CA4000800A400083E5354415920200064
:105920003E53554D4D455200CD42000800002142E6
:10593000CD0A00201CB900084375626520000000F4
:10594000526F746174696F6E000000005557000853
:105950005F560008455600081F5600080EB5002087
:105960000821CDE90010034A102338210290FDF7E9
:10597000DDF90EBD43AF00081A4800214170817067
:10598000704770B5FCF753FF164C08B9207800B18A
:10599000012000250028607805D0012802D1FDF7FC
:1059A000A2F9657070BD012170B10128FAD1617052
:1059B000FFF76CFA0128F5D0A570FCF755FF012020
:1059C000BDE87040FDF78FB961700020F8E7054A27
:1059D000D21C115470470348807808B100207047EA
:1059E00001207047A0010020AFF3008010B500F047
:1059F00005F8BDE8104000F0C0B80000F8B501217E
:105A00000420FBF764FBC020ADF8000010269E4D7B
:105A10008DF8036003248DF8024069462846FBF7A1
:105A20006EF9C0212846FBF7D4F901210820FBF7C5
:105A30004EFB40F20345ADF800508DF803608DF841
:105A40000240924C69462046FBF759F92946204608
:105A5000FBF7BFF901212046FBF7BBF96420FBF7F8
:105A60002BF801212046FBF7B6F96420FBF724F858
:105A700001212046FBF7ADF9F8BD2DE9F041834E39
:105A8000054602213046FBF7A6F94FF480684146EF
:105A90003046FBF7A0F97C4F002440213846FBF745
:105AA0009AF928064FF08001384602D5FBF791F9A4
:105AB00001E0FBF790F940213846FBF78AF96806C8
:105AC000641C050EE4B2082CE7D341463046FBF7D0
:105AD00080F93046BDE8F0410221FBF77AB92DE9A3
